:100000000C942A000C9447000C9447000C94470071
:100010000C9447000C9447000C9447000C94470044
:100020000C9447000C9447000C9447000C94470034
:100030000C9447000C9447000C9447000C94470024
:100040000C9447000C9447000C9447000C94470014
:100050000C94470011241FBECFE5D8E0DEBFCDBF12
:1000600010E0A0E6B0E0ECE4FCE002C005900D92E8
:10007000AC38B107D9F720E0ACE8B0E001C01D9280
:10008000AA39B207E1F70E9468010C9424060C9487
:100090000000CF93DF9300D000D0CDB7DEB79C83B4
:1000A0008B838B819C819A8389838A818F938981B9
:1000B0008F9384E790E0892F8F9384E790E08F936C
:1000C0000E9461030F900F900F900F9089819A8189
:1000D0008138910518F081E090E002C080E090E066
:1000E0000F900F900F900F90DF91CF910895CF93C5
:1000F000DF931F92CDB7DEB7898387E290E027E2D6
:1001000030E0F9012081322F307E29812F71232B9D
:10011000FC01208386E290E026E230E0F9012081B4
:100120002064FC012083000086E290E0FC018081D5
:10013000882F90E0807499270097B1F785E290E0CE
:10014000FC018081882F90E00F90DF91CF9108957E
:10015000CF93DF9300D0CDB7DEB79A838983909198
:100160008C0081E089278823A1F18AE390E0FC01DB
:10017000108286E290E026E230E0F90120812760DB
:10018000FC01208387E290E027E230E0F901208142
:100190002064FC01208387E290E027E230E0F9014F
:1001A00020812062FC01208386E290E026E230E09C
:1001B000F90120812068FC01208386E290E026E29C
:1001C00030E0F90120812064FC01208381E08093EC
:1001D0008C0084E00E9477000F900F90DF91CF9108
:1001E0000895CF93DF9300D0CDB7DEB79A8389838C
:1001F00090918D0081E08927882361F081E390E070
:1002000021E330E0F90120812068FC01208381E0B6
:1002100080938D0089819A81009751F082E390E06C
:1002200022E330E0F90120812068FC01208309C02D
:1002300082E390E022E330E0F90120812F77FC0196
:10024000208380E090E00F900F90DF91CF91089590
:10025000CF93DF9300D000D000D0CDB7DEB79C8322
:100260008B837E836D8382E390E022E330E0F901AB
:1002700020812068FC0120838B819C81009719F4E8
:100280008D819E811CC08B819C819A83898307C04C
:1002900089819A81FC01828193819A8389838981F2
:1002A0009A81FC0182819381009791F789819A81DB
:1002B0002D813E81FC01338322838B819C81269694
:1002C0000FB6F894DEBF0FBECDBFDF91CF9108957A
:1002D000CF93DF93CDB7DEB70E9475010E94D401A2
:1002E00080E090E0DF91CF910895CF93DF93CDB779
:1002F000DEB70E94FA0189E790E0892F8F9389E7A2
:1003000090E08F930E9461030F900F9088EA90E035
:100310000E94B1019C0180918E0090918F00B901E3
:100320000E94280190938F0080938E0089E490E0D2
:100330000E94B1019C0180918E0090918F00B901C3
:100340000E94280181EF90E00E94B1019C01809100
:100350008E0090918F00B9010E942801DF91CF910A
:100360000895CF93DF9300D000D0CDB7DEB79C8344
:100370008B8384E090E00E943A029A83898389818A
:100380009A812B813C81FC013183208389819A8170
:10039000FC011382128289819A810F900F900F9035
:1003A0000F90DF91CF910895CF93DF9300D000D0CD
:1003B000CDB7DEB71A82198280918E0090918F009E
:1003C0009C838B8312C08B819C81FC0120813181B5
:1003D00089819A81F90109959A8389838B819C810E
:1003E000FC01828193819C838B838B819C8100970C
:1003F00051F7E2CFCF93DF93CDB7DEB780E490E043
:10040000FC01108289E290E027E6FC0120838AE269
:1004100090E02AE230E0F90120812860FC0120838D
:1004200080E490E026E8FC01208386E690E090934B
:10043000970080939600DF91CF910895CF93DF933B
:100440001F92CDB7DEB7898300008BE290E0FC01FC
:100450008081882F90E0807299270097B1F38CE219
:1004600090E02981FC01208380E090E00F90DF91F3
:10047000CF910895CF93DF938230910510F482E0FD
:1004800090E0E0919200F091930020E030E0A0E055
:10049000B0E0309739F14081518148175907B8F0E1
:1004A0004817590771F482819381109729F01396A8
:1004B0009C938E9312972CC09093930080939200FC
:1004C00027C02115310531F04217530718F0A90153
:1004D000DB0101C0EF019A01BD01DF010280F38160
:1004E000E02DD7CF21153105F9F0281B390B243029
:1004F000310580F48A819B816115710521F0FB0132
:100500009383828304C09093930080939200FE01B2
:10051000329644C0FE01E20FF31F81939193225063
:100520003109398328833AC020919000309191009D
:10053000232B41F4209162003091630030939100AD
:1005400020939000209160003091610021153105C9
:1005500041F42DB73EB74091640050916500241BD3
:10056000350BE0919000F0919100E217F307A0F4B1
:100570002E1B3F0B2817390778F0AC014E5F5F4FF9
:100580002417350748F04E0F5F1F5093910040939A
:1005900090008193919302C0E0E0F0E0CF01DF9101
:1005A000CF910895CF93DF93009709F487C0FC01A2
:1005B000329713821282C0919200D09193002097BB
:1005C00081F420813181280F391F80919000909112
:1005D00091008217930779F5F0939100E0939000D2
:1005E0006DC0DE0120E030E0AE17BF0750F4129678
:1005F0004D915C9113979D014115510509F1DA0167
:10060000F3CFB383A28340815181840F951F8A1752
:100610009B0771F48D919C911197840F951F029601
:100620009183808312968D919C91139793838283FB
:100630002115310529F4F0939300E09392003EC018
:10064000D9011396FC93EE9312974D915D91A40FEF
:10065000B51FEA17FB0779F480819181840F951FFC
:100660000296D90111969C938E9382819381139661
:100670009C938E931297E0E0F0E08A819B81009733
:1006800019F0FE01EC01F9CFCE01029628813981E3
:10069000820F931F20919000309191002817390705
:1006A00069F4309729F4109293001092920002C0DE
:1006B00013821282D0939100C0939000DF91CF916A
:1006C0000895A0E0B0E0E7E6F3E00C94FD05FE013C
:1006D000359661917191AF0180919600909197004C
:1006E0000E947503E2E00C941906ACE0B0E0EBE781
:1006F000F3E00C94ED057C016B018A01FC0117828B
:100700001682838181FFBDC1CE0101964C01F701A4
:100710009381F60193FD859193FF81916F01882369
:1007200009F4ABC1853239F493FD859193FF819132
:100730006F01853229F4B70190E00E945D05E7CF93
:10074000512C312C20E02032A0F48B3269F030F4AF
:10075000803259F0833269F420612CC08D3239F037
:10076000803339F4216026C02260246023C02860D1
:1007700021C027FD27C030ED380F3A3078F426FF2E
:1007800006C0FAE05F9E300D1124532E13C08AE09C
:10079000389E300D1124332E20620CC08E3221F48D
:1007A00026FD6BC1206406C08C3611F4206802C09F
:1007B000883641F4F60193FD859193FF81916F0195
:1007C0008111C1CF982F9F7D9554933028F40C5FF1
:1007D0001F4FFFE3F9830DC0833631F0833771F08B
:1007E000833509F05BC022C0F801808189830E5FE8
:1007F0001F4F44244394512C540115C03801F2E09A
:100800006F0E711CF801A080B18026FF03C0652D1A
:1008100070E002C06FEF7FEFC5012C870E94520588
:100820002C0183012C852F77222E17C03801F2E08E
:100830006F0E711CF801A080B18026FF03C0652DEA
:1008400070E002C06FEF7FEFC5012C870E94470563
:100850002C012C852068222E830123FC1BC0832DB4
:1008600090E048165906B0F4B70180E290E00E948B
:100870005D053A94F4CFF50127FC859127FE81911F
:100880005F01B70190E00E945D0531103A94F1E0FC
:100890004F1A51084114510471F7E5C0843611F024
:1008A000893639F5F80127FF07C06081718182819F
:1008B00093810C5F1F4F08C060817181882777FD8D
:1008C0008095982F0E5F1F4F2F76B22E97FF09C08D
:1008D00090958095709561957F4F8F4F9F4F2068C1
:1008E000B22E2AE030E0A4010E948F05A82EA8189D
:1008F00044C0853729F42F7EB22E2AE030E025C08F
:10090000F22FF97FBF2E8F36C1F018F4883579F0B9
:10091000B4C0803719F0883721F0AFC02F2F206185
:10092000B22EB4FE0DC08B2D8460B82E09C024FFFA
:100930000AC09F2F9660B92E06C028E030E005C09F
:1009400020E130E002C020E132E0F801B7FE07C04C
:1009500060817181828193810C5F1F4F06C060812D
:10096000718180E090E00E5F1F4FA4010E948F050F
:10097000A82EA818FB2DFF77BF2EB6FE0BC02B2D7F
:100980002E7FA51450F4B4FE0AC0B2FC08C02B2D73
:100990002E7E05C07A2C2B2D03C07A2C01C0752C1D
:1009A00024FF0DC0FE01EA0DF11D8081803311F49A
:1009B000297E09C022FF06C07394739404C0822F5D
:1009C000867809F0739423FD13C020FF06C05A2CCB
:1009D000731418F4530C5718732C731468F4B7017C
:1009E00080E290E02C870E945D0573942C85F5CF02
:1009F000731410F4371801C0312C24FF12C0B70152
:100A000080E390E02C870E945D052C8522FF17C0B3
:100A100021FF03C088E590E002C088E790E0B701BD
:100A20000CC0822F867859F021FD02C080E201C0FF
:100A30008BE227FD8DE2B70190E00E945D05A514D1
:100A400038F4B70180E390E00E945D055A94F7CF37
:100A5000AA94F401EA0DF11D8081B70190E00E9493
:100A60005D05A110F5CF332009F451CEB70180E226
:100A700090E00E945D053A94F6CFF7018681978158
:100A800002C08FEF9FEF2C96E2E10C940906FC0167
:100A90000590615070400110D8F7809590958E0FA9
:100AA0009F1F0895FC016150704001900110D8F71C
:100AB000809590958E0F9F1F08950F931F93CF934E
:100AC000DF93182F092FEB018B8181FD03C08FEF7E
:100AD0009FEF20C082FF10C04E815F812C813D813D
:100AE000421753077CF4E881F9819F012F5F3F4F44
:100AF00039832883108306C0E885F985812F0995FD
:100B0000892B29F72E813F812F5F3F4F3F832E8313
:100B1000812F902FDF91CF911F910F910895FA01AE
:100B2000AA27283051F1203181F1E8946F936E7F2C
:100B30006E5F7F4F8F4F9F4FAF4FB1E03ED0B4E01D
:100B40003CD0670F781F891F9A1FA11D680F791F5E
:100B50008A1F911DA11D6A0F711D811D911DA11D6F
:100B600020D009F468943F912AE0269F112430197F
:100B7000305D3193DEF6CF010895462F4770405D1A
:100B80004193B3E00FD0C9F7F6CF462F4F70405DC9
:100B90004A3318F0495D31FD4052419302D0A9F724
:100BA000EACFB4E0A6959795879577956795BA951E
:100BB000C9F700976105710508959B01AC010A2EE4
:100BC00006945795479537952795BA95C9F7620FBB
:100BD000731F841F951FA01D08952F923F924F925F
:100BE0005F926F927F928F929F92AF92BF92CF92BD
:100BF000DF92EF92FF920F931F93CF93DF93CDB7C6
:100C0000DEB7CA1BDB0B0FB6F894DEBF0FBECDBF3D
:100C100009942A88398848885F846E847D848C840E
:100C20009B84AA84B984C884DF80EE80FD800C8117
:100C30001B81AA81B981CE0FD11D0FB6F894DEBFFA
:0C0C40000FBECDBFED010895F894FFCF6A
:100C4C0000009A00200000000002000000001E02BC
:100C5C000000000025640D0A001B5B303B33316D36
:0C0C6C0068616C6C6F2077656C74000090
:00000001FF
